:020000040800F2
:1000000018220020D5010008ED060008E5060008CA
:10001000E906000835050008D11B000800000000B3
:100020000000000000000000000000006918000847
:100030003905000800000000550200085D1900089D
:10004000EF010008EF010008EF010008EF010008D0
:10005000EF010008EF010008EF010008EF010008C0
:10006000EF010008EF010008EF010008EF010008B0
:10007000EF010008EF010008EF010008EF010008A0
:10008000EF010008EF010008EF010008EF01000890
:10009000EF010008EF010008EF010008EF01000880
:1000A000EF010008EF010008EF010008EF01000870
:1000B000EF010008EF010008EF010008EF01000860
:1000C000EF010008EF010008EF010008EF01000850
:1000D000EF010008EF010008EF010008EF01000840
:1000E000CD050008EF010008EF010008EF0100084E
:1000F000EF010008EF010008EF010008EF01000820
:10010000EF010008EF010008EF010008EF0100080F
:10011000EF010008EF010008EF010008EF010008FF
:10012000EF010008EF010008EF010008EF010008EF
:1001300000F002F800F03FF80AA090E8000C8244BA
:100140008344AAF10107DA4501D100F034F8AFF297
:10015000090EBAE80F0013F0010F18BFFB1A43F0A5
:10016000010318470C1D00002C1D0000103A24BF8D
:1001700078C878C1FAD8520724BF30C830C144BF0C
:1001800004680C607047000000230024002500264E
:10019000103A28BF78C1FBD8520728BF30C148BFEA
:1001A0000B607047642900F0CB80002070471FB5BA
:1001B0001FBD10B510BD00F08BF91146FFF7F7FF1A
:1001C00001F01CFD00F0A9F903B4FFF7F2FF03BC36
:1001D00001F000FD0948804709480047FEE7FEE7B7
:1001E000FEE7FEE7FEE7FEE7FEE7FEE7FEE7FEE7E7
:1001F00004480549054A064B704700006D19000880
:1002000031010008181400201822002018160020C0
:1002100018160020EFF3108072B6704780F3108834
:1002200070471D481D490160002080F309881C4863
:10023000012101701B484FF08051016062B6FEE75A
:1002400018484FF080510160704716484FF08051B8
:100250000160704772B6EFF3098028B1203880E85A
:10026000F00F11490968086000B5104880475DF833
:1002700004EB0F480F490A7802700B480E490A68D0
:100280000260106890E8F00F203080F309884EF08B
:10029000040E62B6704700BF20ED00E00000FFFFD3
:1002A0005600002004ED00E05C000020790F0008FB
:1002B0004B0000204C00002064000020704700002C
:1002C0000FB4044910B503AA029800F0D3F810BC8B
:1002D0005DF814FB040000202DE9F0410E460446B1
:1002E000002020622046E168884730B3252805D0E9
:1002F000D4E901219047206A401CF2E7E1682046DA
:1003000000278847050018D0A5F14100192802D818
:1003100020354FF400673246294620462760FFF714
:1003200041FF40B1012804D0F61D26F0070608362B
:10033000D8E7361DD6E72846DAE7206ABDE8F0811F
:100340002DE9F0410646002410687529314616A5AE
:1003500010D0AFF30080002802DA404213A507E076
:1003600031688A0701D512A502E0490704D511A515
:10037000012401E0AFF3008000210A2206F12407E6
:1003800009E0B0FBF2FCB0FBF2F302FB1C003030E2
:1003900078541846491C0028F3D123462A46304693
:1003A000BDE8F04100F00CB8000000002D00000096
:1003B0002B00000020000000704770477047704716
:1003C0002DE9F0470D4699469246044600F124086F
:1003D0000168880604D5E06921F01001216000E081
:1003E0000120A84201DD471B00E00027A1697A191E
:1003F00002EB0900081AA0612078C00602D420464A
:10040000AFF30080002608E0D4E901211AF80600C5
:100410009047206A401C761C20624E45F4DB207811
:10042000C0060AD52046AFF3008006E0D4E90121DA
:1004300030209047206A401C2062381EA7F1010737
:10044000F4DC07E0D4E9012118F805009047206AA0
:10045000401C2062281EA5F10105F3DC2046AFF305
:1004600000802078000602D50220BDE8F087012038
:10047000FBE70000074B70B50D467B4400F011F818
:100480000446284600F020F810B14FF0FF3070BD50
:10049000204670BD5B17000001694A1C02610878A4
:1004A000704700B58FB0CDE90131002105910549B4
:1004B0007944CDE9031011466846FFF70DFF0FB0F0
:1004C00000BD0000E5FFFFFF007B00F080007047EB
:1004D000754600F02BF8AE4605006946534620F0FD
:1004E0000700854618B020B5FFF782FEBDE8204022
:1004F0004FF000064FF000074FF000084FF0000BE0
:1005000021F00701AC46ACE8C009ACE8C009ACE892
:10051000C009ACE8C0098D46704710B50446AFF37A
:1005200000802046BDE81040FFF74EBE00487047EF
:10053000B813002000BFFEE77047000070B5044606
:100540000E480078012811D10D480088844206DB4E
:100550000B48008894FBF0F5284600F00FFD084892
:10056000008894FBF0F100FB114084B24FF47A71E3
:1005700004FB01F000F006F870BD000056000020FA
:100580000200002070B503464FF0E02675690E4E5C
:10059000367803FB06F400224FF0E026B16910E044
:1005A0004FF0E026B06988420BD0884202D20E1A82
:1005B000324402E02E1A0E4432440146A24200D3D5
:1005C00000E0EDE700BF70BD0000002070472DE99E
:1005D000F0410246002500260020002300240027C9
:1005E00091F803C00CF00F0591F803C00CF0100C4B
:1005F000BCF1000F03D091F802C04CEA050591F858
:1006000000C0BCF1000F31D0146800202BE04FF087
:10061000010C0CFA00F3B1F800C00CEA03069E428C
:1006200020D183004FF00F0C0CFA03F7BC4305FAFE
:1006300003FC4CEA040491F803C0BCF1280F06D176
:100640004FF0010C0CFA00FCC2F814C00AE091F85B
:1006500003C0BCF1480F05D14FF0010C0CFA00FCAF
:10066000C2F810C0401C0828D1D31460B1F800C0F3
:10067000BCF1FF0F34DD546800202EE000F1080CBF
:100680004FF0010808FA0CF3B1F800C00CEA0306B9
:100690009E4221D183004FF00F0C0CFA03F7BC43AC
:1006A00005FA03FC4CEA040491F803C0BCF1280FDE
:1006B00005D100F1080C08FA0CF8C2F8148091F882
:1006C00003C0BCF1480F07D100F1080C4FF001083E
:1006D00008FA0CF8C2F81080401C0828CED35460E9
:1006E000BDE8F08100BFFEE700BFFEE770470000F5
:1006F00002490143024A1160704700000000FA05F8
:100700000CED00E0174818481848194819481A48CD
:100710001A481B481B481C481C481D481D481E48B9
:100720001E481F481F482048204821482148224889
:100730002248234823482448244825482548264859
:1007400026482748274828482848294829482A4829
:100750002A482B482B482C482C482D482D482E48F9
:1007600000BF7047FC1D0008001E0008061E0008A0
:10077000081E0008041E00080A1E00080C1E0008BF
:100780000E1E0008101E0008121E0008141E00088D
:10079000161E0008181E00081A1E00081C1E00085D
:1007A0001E1E0008201E0008221E0008241E00082D
:1007B000261E0008281E00082A1E00082C1E0008FD
:1007C0002E1E0008301E0008321E0008341E0008CD
:1007D000361E0008381E00083A1E00083C1E00089D
:1007E0003E1E0008401E0008421E0008441E00086D
:1007F000461E0008481E00084A1E00084C1E00083D
:100800004E1E0008521E0008541E0008561E000806
:10081000581E00085A1E00086E1E000810B500F091
:1008200017F800F0FFFC00F027FD00F047FD00F096
:10083000C9FC00F089FC00F0DBFD00F005FE00F0D3
:100840007DFD00F0A3FD00F004F8FFF75BFF10BD95
:100850007047704706480078012808D1054800789D
:10086000FF2804D203480078401C024908707047F2
:10087000560000204900002010B500241A480078D6
:10088000012830D1FFF7C6FC04461848007820B193
:1008900016480078401E1549087014480078F8B9C9
:1008A00013480078E0B900F031FE12481249097887
:1008B00050F82100114908600F4800781049097864
:1008C00088420DD00D480068C06B401C0B49096878
:1008D000C8630C480068401C0A490860FFF7B5FC73
:1008E0002046FFF79BFC10BD560000204900002069
:1008F0004A000020500A00204C0000206400002024
:100900004B0000203000002010B50B48007890B953
:1009100000F0FCFD094800780949087009480749BA
:10092000097850F82100084908600846006807491E
:100930000860FFF776FC10BD560000204C00002038
:100940004B000020500A0020640000205C000020C2
:1009500010B50024022000F011FBFFF75BFC0446F9
:1009600000200B4908602046FFF758FC642000F087
:1009700005FBFFF74FFC0446054800680549086081
:100980000120054908702046FFF748FC10BD000013
:100990005800002040000020480000207047000060
:1009A0002DE9FE4F06460F4690461C464FF00009C3
:1009B0003F2C02D92A20BDE8FE8FFFF72BFC814691
:1009C0001E48007820B14846FFF728FC3C20F2E79B
:1009D0001B4850F8240060BB0120194941F824004D
:1009E0004846FFF71BFC002342463946304600F0DC
:1009F00017FA8246002000900190034602465146B5
:100A00000290204600F098FD054635B90D48007863
:100A100001280CD100F040FD09E0FFF7FBFB814607
:100A20000020074941F824004846FFF7F7FB284615
:100A3000C1E74846FFF7F2FB2820BCE74900002049
:100A4000500A0020560000202DE9F04F85B0814665
:100A50008A4693461C46DDE90F78129D00200390DC
:100A60003F2C03D92A2005B0BDE8F08FFFF7D2FB59
:100A700003902248007820B10398FFF7CFFB3C2079
:100A8000F1E71F4850F8240088BB01201C4941F8B9
:100A900024000398FFF7C2FB2A464146384600F07F
:100AA0005BFE2B465A465146484600F0B9F9049081
:100AB0001198CDE9008002953A4620460E9B049994
:100AC00000F03AFD064636B90E48007801280CD1F0
:100AD00000F0E2FC09E0FFF79DFB039000200849CD
:100AE00041F824000398FFF799FB3046BBE7FFE786
:100AF0000398FFF793FB2820B5E70000490000208A
:100B0000500A002056000020704700002DE9F041F7
:100B1000054600274D48007810B14020BDE8F0811F
:100B20003F2D01D13E20F9E73F2D03D3FF2D01D00A
:100B30002A20F3E7FFF76EFB0746FF2D03D1444859
:100B4000006890F83650434850F8254024B938469C
:100B5000FFF764FB4320E1E7012C04D13846FFF79F
:100B60005DFB3D20DAE714F8380F3B49085C6178FB
:100B700088432178384A505414F838091146085CE3
:100B800030B994F83A1035480078884333490870F2
:100B9000E06918B12046E16900F0A4FA206A18B1B2
:100BA0002046216A00F0B3FAA66A16B1304600F07A
:100BB000F7FA0020206384F8340084F835002848D0
:100BC0000078FF2804D226480078401C2449087089
:100BD0003846FFF723FB00F084FAFFF71BFB0746BC
:100BE0001F48007820B11E480078401E1C4908703C
:100BF000204600F041F81B480078401E1949087053
:100C00000020144941F82500A06930B9002061692D
:100C1000886115496069086005E0D4E9050148610B
:100C2000D4E9051088611148006860610F480460CC
:100C30000FA020653846FFF7F1FA0E48007801282A
:100C400001D100F029FC002068E7000049000020E5
:100C50005C000020500A00204E0000204D000020C3
:100C60004A0000205700002068000020600000209B
:100C70003F00000056000020704700002DE9F041C1
:100C8000044600273F2C02D13E20BDE8F0813F2CD6
:100C900003D3FF2C01D02A20F7E7FF2C0BD1FFF75D
:100CA000B9FA07461148006890F83B603846FFF7EC
:100CB000B5FA3046E9E7FFF7ADFA07460C4850F8B9
:100CC000245025B93846FFF7A9FA4320DDE7012D66
:100CD00004D13846FFF7A2FA3D20D6E73F2085F839
:100CE0003B003846FFF79AFA0020CEE75C00002070
:100CF000500A0020704700002DE9F04105460F46DC
:100D000014464FF000083F2D05D9FF2D03D02A20AF
:100D10002070BDE8F08117B90C202070F9E7144865
:100D2000007810B112202070F3E7FFF773FA8046C5
:100D3000FF2D03D10F48006890F836500E4850F848
:100D400025602EB94046FFF769FA43202070E0E79E
:100D5000012E05D14046FFF761FA43202070D8E705
:100D600037654046FFF75AFA0020207000BFD0E7F1
:100D7000490000205C000020500A0020704700005D
:100D80002DE9F04706460C464FF0000A3F2E04D9E5
:100D9000FF2E02D02A20BDE8F0870CB90920FAE71F
:100DA000002020606060FFF735FA8246FF2E03D1F5
:100DB0001948006890F83660184850F8265025B950
:100DC0005046FFF72BFA4320E5E7012D04D15046AA
:100DD000FFF724FA4320DEE7287C00F0010020B969
:100DE0005046FFF71BFA4520D5E70027D5F80C90B1
:100DF000D5F808805046FFF711FA00E07F1C58F83C
:100E0000041B0029FAD0B8002060A9EB070080007D
:100E100060600020BFE700005C000020500A002056
:100E200070B5044610464FF080750560051F2846D2
:100E30002C606FF00106051F28462E604FF0123619
:100E4000051F28462E604FF00336051F28462E60EA
:100E50004FF00236051F28462E607610051F2846E3
:100E60002E60051F284629604FF01136051F2846C1
:100E70002E604FF01036051F28462E604FF00936C1
:100E8000051F28462E604FF00836051F28462E60A5
:100E90004FF00736051F28462E604FF00636051F17
:100EA00028462E604FF00536051F28462E604FF06D
:100EB0000436051F28462E6070BD00002DE9F04164
:100EC00005464FF000083F2D02D14720BDE8F081D4
:100ED0003F2D03D3FF2D01D02A20F7E7FFF79AF922
:100EE0008046FF2D05D12048006890F83650012635
:100EF00008E01D48006890F83600A84201D101269C
:100F000000E00026194850F8254024B94046FFF774
:100F100085F94820DAE7012C04D14046FFF77EF935
:100F20004320D3E794F838701148C05D94F8391025
:100F300088430F49C8550846C05D30B994F83A1047
:100F40000C48007888430B49087094F8340040F04E
:100F5000080084F834004046FFF760F9012E01D103
:100F600000F09AFA0020B1E75C000020500A00204F
:100F70004E0000204D0000207047000070B505466F
:100F800000261748007800B170BD1648007800B1FF
:100F9000FAE71DB3FFF73EF906461348006890F8DC
:100FA00038401248005D1049096891F839108843AB
:100FB0000E4908550846005D40B90B48006890F896
:100FC0003A100B48007888430949087006480068C1
:100FD00005633046FFF722F900F05EFA00BFD3E761
:100FE000490000204A0000205C0000204E00002044
:100FF0004D00002070B5002600F072F8FFF70AF9E6
:10100000064631480068401C2F4908603046FFF70B
:1010100005F92E480078012853D12D48007820B1D9
:10102000012804D0022809D103E001250BE00025A6
:1010300009E0012501202649087004E0012500206F
:101040002349087000BF00BF05B970BD214804687E
:1010500033E0FFF7DFF80646206B50B3206B401EED
:101060002063206B28BB94F8340000F0370040B1B7
:1010700014F8340F00F0C800207001206070343C78
:1010800002E0002084F8350094F8340000F00800F5
:1010900078B93834A0781049097808430E490870A7
:1010A00020780E49085C6178084314F838190B4A17
:1010B000505464693046FFF7B1F894F836003F2881
:1010C000C7D100BFC1E70000780000205600002013
:1010D0006C000020680000204D0000204E00002021
:1010E0007047704710B590F8382001F10B039B5CF6
:1010F00090F83940A34301F10B04A35423469B5CB1
:1011000023B98B7A90F83A40A3438B7210BDF0B5A7
:10111000024612F8384F95785678383A0B461868D8
:101120000FE000F10B073F5DB74300F10B0C0CF82B
:10113000047067463F5D17B9877AAF4387721B1DFE
:1011400018680028EDD1F0BD2DE9F041502111487B
:1011500000F044F900250DE0681C86B20D4800EB54
:10116000051400EB06170020207067600AA0E060FD
:10117000681C85B2042DEFD3064800EB051400204F
:101180002070606004A0E060024804490860BDE887
:10119000F0810000000600203F0000003800002021
:1011A00030B501464A6808682AB9CC68606028B141
:1011B0000025456002E0106000B142608B680025A8
:1011C0009D6230BD70B54FF4C071134800F006F950
:1011D000002411E0601C85B204EB44000E4901EBD1
:1011E000C00305EB450001EBC006002018705E60EF
:1011F0000AA05861601C84B20F2CEBD304EB4400AE
:10120000054901EBC00300201870586003A0586125
:1012100008460349086070BD800400203F000000BC
:101220003400002000200A4908600A4908700A4971
:1012300008700A4908700A4908700A4908600A4992
:1012400008600A4908600A4908600A49087070473E
:1012500078000020490000204A00002057000020AC
:1012600056000020300000205800002044000020DC
:10127000400000204800002000210A4A1170002090
:1012800004E00021084A1154411CC8B20828F8D3D0
:101290000021064A1170064A1170064A1160064A7A
:1012A000116070474D0000204E0000204B000020D0
:1012B0004C000020640000205C00002070B54FF45A
:1012C000F261194800F08AF84FF48071174800F075
:1012D00085F8002413E0601CC5B204EB440000EB69
:1012E000C400114901EBC00305EB450000EBC5004C
:1012F00001EBC0065E610EA01865601CC4B2152C1F
:10130000E9D304EB440000EBC400074901EBC00340
:101310000020586106A018650020064908600248B0
:101320000549086070BD0000500B0020500A0020E5
:101330003F000000680000206000002000B587B07A
:101340000320002180220A4BCDE90132CDE90310B0
:101350004FF6FF703F23074A00900748FFF774FBE2
:1013600006AA06A13F20FFF7C7FC07B000BD00009A
:10137000500800204C0A00206D16000875432F4FBE
:10138000532D49492049646C6500000000B587B0C1
:101390000320002180220A4BCDE90132CDE9031060
:1013A0004FF6FE703E23074A00900748FFF74CFBBC
:1013B00006AA06A13E20FFF79FFC07B000BD000073
:1013C000500600204C0800209516000875432F4F4A
:1013D000532D4949205374617400000004E0002239
:1013E00000F8012B4A1E91B20029F8D17047000085
:1013F00070B578211148FFF7F1FF00240EE004EBEF
:1014000044000E4901EBC005601C00EB400001EBFD
:10141000C00068600AA06861601C84B2042CEED32E
:1014200004EB4400054901EBC0050020686004A0FE
:10143000686108460349086070BD0000E0120020A2
:101440003F000000700000202DE9F04160211048AD
:10145000FFF7C4FF00240DE0601C86B204EB4400DB
:101460000B4901EBC00506EB460001EBC0072F60FE
:10147000601C84B2032CEFD304EB4400044901EB5D
:10148000C00500202860084602490860BDE8F081D8
:10149000581300207400002010B50024FEF7BAFE97
:1014A000044613480078F8B912480078E0B900F013
:1014B0002DF811481149097850F8210010490860A9
:1014C0000E4800780F49097888420DD00C48006812
:1014D000C06B401C0A490968C8630B480068401C7F
:1014E00009490860FEF7ACFE2046FEF797FE10BDE6
:1014F000490000204A000020500A00204C00002033
:10150000640000204B000020300000200649074AFC
:101510001278885C0649095C034A515C01EBC00102
:10152000044A117070470000FC1C00084D000020A8
:101530004E0000204C0000202DE9F84F05460F46D4
:1015400090469946DDE90AAB00200090FEF762FE66
:1015500000903F480468002C75D01C3454F8080CE7
:101560003B4908600098FEF759FE44F81C7CA576BC
:10157000002020766076606144F818BC44F810AC16
:1015800044F8148C0C9824F80C0C24F80A9C0020C5
:10159000E077E810207705F00700E076217F012052
:1015A0008840A077E17E012088406077002020609D
:1015B0006060E060A0602062A0626062E062206320
:1015C00024A060631C3C002606E0002104F15400C6
:1015D00040F82610701CC6B2002EF6D02046FFF749
:1015E000DDF92046FFF790FAFEF714FE00901A4846
:1015F00040F825401948006860610020A061174844
:10160000006810B1154800688461144804603834DB
:10161000A0781349097808431149087020781149C6
:10162000085C6178084314F838190E4A50540E4883
:101630000078401C0C4908700098FEF7EFFD002070
:10164000BDE8F88FFFE70098FEF7E8FD4220F7E7D6
:10165000600000203F000000500A002068000020C9
:101660004D0000204E00002057000020002400BF45
:1016700000BFFEF7CFFD044605480068401C044942
:1016800008602046FEF7CAFDFFF734FBF1E70000D3
:1016900058000020002400BF02E0C820FFF76EFCC5
:1016A000194800780028F8D0184800686421B0FB79
:1016B000F1F0164908600846006828B9002014496E
:1016C0000870FF20FFF7FAFB00BFFEF7A3FD0446FA
:1016D000104800681049086000200E490860204644
:1016E000FEF79CFD0C48006808490968B0FBF1F062
:1016F000C0F1640006490870FFF740FB00F00EF8E7
:101700006420FFF73BFCE0E7480000204000002099
:101710003C00002058000020440000207CB500253B
:1017200014E069462846FFF72BFB064666B90948D0
:1017300050F8254044B1012C06D0D4E9020100EB59
:101740008100A0640198E064681CC5B23F2DE8D90F
:101750007CBD0000500A002002F0010343B102F0FA
:1017600002032BB102E0491E002308C00029FAD170
:101770007047000029B1064A92690243044B9A61FE
:1017800004E0034A92698243014B9A61704700006A
:101790000010024030B500210022002400232D4D0E
:1017A0006D6805F00C0121B1042905D0082923D169
:1017B00005E0294D056022E0274D05601FE0254D1D
:1017C0006D6805F47012234D6D6805F480340225B0
:1017D00005EB92421CB9214D554305600BE01D4DB0
:1017E0006D6805F400351DB11C4D5543056002E0E0
:1017F000194D5543056002E0174D056000BF00BF5D
:10180000144D6D6805F0F0010909154D6B5C056814
:10181000DD4045600F4D6D6805F4E061090A104D2B
:101820006B5C4568DD4085600A4D6D6805F460516C
:10183000C90A0B4D6B5C4568DD40C560054D6D68A0
:1018400005F44041890B074D6B5CC568B5FBF3F5AA
:10185000056130BD0010024000127A0000093D0011
:101860001C0000202C000020704710B500F0DEF8AE
:10187000012010BD10B500F001F810BD0CB500201E
:10188000019000903348006840F48030314908608E
:1018900000BF3048006800F4003000900198401C00
:1018A0000190009818B90198B0F5A06FF1D12948BE
:1018B000006800F4003010B10120009001E0002029
:1018C00000900098012843D12348006840F01000A0
:1018D000214908600846006820F0030008600846B7
:1018E000006840F0020008601A48406819494860E2
:1018F0000846406848600846406840F48060486098
:101900000846406820F47C1048600846406840F46F
:10191000E81048600846006840F08070086000BF2A
:101920000C48006800F000700028F9D009484068B1
:1019300020F00300074948600846406840F0020074
:10194000486000BF0348406800F00C000828F9D147
:101950000CBD0000001002400020024010B5FEF750
:1019600079FFFFF747FBFEF787FF10BD10B513485F
:10197000006840F0010011490860084640681049BD
:1019800008400E494860084600680E4908400B4967
:1019900008600846006820F4802008600846406817
:1019A00020F4FE0048604FF41F008860FFF762FFDC
:1019B0004FF000600449086010BD000000100240B4
:1019C0000000FFF8FFFFF6FE08ED00E04FF0E02119
:1019D000096921F004014FF0E02211610F49096803
:1019E0000F4AB1FBF2F10F4A1170114608784FF41B
:1019F0007A71484301210C4A11804FF0E0210969B6
:101A000041F002014FF0E0221161411E5161114687
:101A1000096941F0010111617047000008000020D0
:101A200000127A00000000200200002000B585B0FE
:101A300001210420FFF79EFE01210420FFF79AFEFA
:101A400001218803FFF796FE4FF40070ADF81000F7
:101A500001208DF8120018208DF8130004A91548F4
:101A6000FEF7B5FD4FF48060ADF8100001208DF851
:101A7000120004208DF8130004A90E48FEF7A7FDFC
:101A80004FF4614000900020ADF80400ADF806006E
:101A9000ADF80800ADF80C000C20ADF80A0069465E
:101AA000054800F025F80121034800F007F805B0CB
:101AB00000BD0000000801400038014021B18289CA
:101AC00042F40052828104E082894DF6FF731A408D
:101AD0008281704702460020B1F5007F00D100BF2F
:101AE00013880B400BB1012000E00020704700007C
:101AF0002DE9F04786B005460E460024A24600BFF9
:101B0000A1460027B08900B100BF2F462C8A4CF6B1
:101B1000FF700440F08804432C82AC894EF6F31029
:101B20000440B08831890843718908430443AC817B
:101B3000AC8A4FF6FF400440B0890443AC8201A850
:101B4000FFF728FE1F48874202D1DDF810A001E010
:101B5000DDF80CA0A88900F4004040B10AEBCA00EF
:101B600000EB0A1031684900B0FBF1F807E00AEB1E
:101B7000CA0000EB0A1031688900B0FBF1F864205C
:101B8000B8FBF0F004012009642101FB1089A88949
:101B900000F4004040B1322000EBC900B0FBF1F08E
:101BA00000F00700044308E0322000EB0910642134
:101BB000B0FBF1F000F00F0004432C8106B0BDE84B
:101BC000F087000000380140C1F3080282807047AE
:101BD00000BFFEE700BF704770B504460D4600BF6A
:101BE00040210548FFF776FF0028F9D0E1B202480E
:101BF000FFF7EAFF204670BD0038014010B54FF4F2
:101C0000A060FEF775FDFEF709FE1E23044A0021C1
:101C10000448FEF7C5FEFEF777FE002010BD000069
:101C20007C020020291C000870B506460025FFF73D
:101C30001CFEFFF7CBFEFEF78BFEFEF7EBFA054628
:101C400011230F4A00210F48FEF7AAFEFF20FFF7DD
:101C500015F8044664B9FF20FEF758FF04461CB986
:101C600009A0FEF72DFB06E00CA0FEF729FB02E021
:101C70000FA0FEF725FB2846FEF7D0FA70BD000046
:101C80007C040020C91C0008C9BEB3FDBFAACABCA1
:101C9000C8CECEF1B3C9B9A6200D0A00BFAACABCEE
:101CA000C8CECEF1C9BEB3FDCAA7B0DC200D0A0074
:101CB000C7EBC7F3BFAACABCC8CECEF1C9BEB3FD3D
:101CC000CAA7B0DC200D0A0008E00548017805A08D
:101CD000FEF7F6FA4FF47A70FEF730FCF5E70000F5
:101CE0003C000020435055B5C4CAB9D3C3C2CACEC4
:101CF000AAA3BA2564252520200D0A0000000100B2
:101D000002000100030001000200010004000100C4
:101D100002000100030001000200010005000100B3
:101D200002000100030001000200010004000100A4
:101D30000200010003000100020001000600010092
:101D40000200010003000100020001000400010084
:101D50000200010003000100020001000500010073
:101D60000200010003000100020001000400010064
:101D70000200010003000100020001000700010051
:101D80000200010003000100020001000400010044
:101D90000200010003000100020001000500010033
:101DA0000200010003000100020001000400010024
:101DB0000200010003000100020001000600010012
:101DC0000200010003000100020001000400010004
:101DD00002000100030001000200010005000100F3
:101DE00002000100030001000200010004000100E4
:101DF00002000100030001000200010001000000D8
:101E00007856341201001000010018008001010012
:101E10000100100014000200050001003F00010055
:101E20000100050001001800780001000400010015
:101E30000400180008000100040001000100010076
:101E40008000010016000100010080000100010077
:101E5000010040005800E8030100230100001000C9
:101E6000010008000A0000000000000000007E0FD2
:101E7000901E0008000000207C0000006C0100089B
:101E80000C1F00087C0000209C2100008801000835
:101E9000000000000000000000A24A040000000052
:101EA000000000000102030406070809000000000A
:101EB00001020304010203040607080902040608DC
:101EC0000000000000000000000000000000000012
:101ED0000000000000000000000000000000000002
:101EE00000000000000000000000000000000000F2
:101EF00000000000000000000000000000000000E2
:0C1F0000000000000000000000000000D5
:0400000508000131BD
:00000001FF
